:100000000C9434000C943E000C943E000C943E0082
:100010000C943E000C943E000C943E000C943E0068
:100020000C943E000C943E000C943E000C943E0058
:100030000C943E000C943E000C943E000C943E0048
:100040000C943E000C943E000C9480000C943E00F6
:100050000C943E000C94AA000C943E000C943E00BC
:100060000C943E000C943E0011241FBECFEFD8E04C
:10007000DEBFCDBF0E947A000C94D5000C94000026
:100080008AB182608AB98AB18E7F8AB91092C00023
:10009000E1ECF0E0808188698083E2ECF0E080812F
:1000A0008660808387E690E09093C5008093C400CB
:1000B0000895ECE7F0E01082808180668083EAE7B3
:1000C000F0E010828BE880830895F8940E9440004D
:1000D0000E945900EAE7F0E08081806480838FEF1E
:1000E00084B9789408959091C00095FFFCCF8093D7
:1000F000C60008950E94650088E60E947300FFCF45
:100100001F920F920FB60F9211242F933F934F938C
:100110005F936F937F938F939F93AF93BF93CF938F
:10012000EF93FF93C091C60082E70E947300C5B9A8
:10013000FF91EF91CF91BF91AF919F918F917F915F
:100140006F915F914F913F912F910F900FBE0F9044
:100150001F9018951F920F920FB60F9211242F9394
:100160003F934F935F936F937F938F939F93AF933F
:10017000BF93EF93FF93809179000E947300EAE7A9
:10018000F0E0808180648083FF91EF91BF91AF9117
:100190009F918F917F916F915F914F913F912F919F
:0E01A0000F900FBE0F901F901895F894FFCF90
:00000001FF
