:100000000C9434000C9449000C9449000C94490061
:100010000C9449000C9449000C9449000C9449003C
:100020000C9449000C9449000C9449000C9449002C
:100030000C9449000C9449000C9449000C9449001C
:100040000C9449000C9449000C948B000C944900CA
:100050000C9449000C9449000C9449000C944900FC
:100060000C9449000C94490011241FBECFEFD8E036
:10007000DEBFCDBF11E0A0E0B1E0ECE7F1E002C0EF
:1000800005900D92AE30B107D9F70E9483000C9411
:10009000BC000C9400008AB182608AB98AB18E7F5C
:1000A0008AB91092C000E1ECF0E080818869808319
:1000B00086E08093C20087E690E09093C50080932D
:1000C000C4000895F8948FEF84B90E944B0078948F
:1000D00008959091C00095FFFCCF8093C6000895CD
:1000E0000F931F93CF938C01C0E003C00E9469005F
:1000F000CF5FF801EC0FF11D80818F3FB9F7CF91F1
:100100001F910F9108950E946200789480E091E021
:100110000E947000FFCF1F920F920FB60F92112412
:100120002F933F934F935F936F937F938F939F93FF
:10013000AF93BF93EF93FF93CF93DF931F92CDB70E
:10014000DEB78091C6008983CE0101960E947000BF
:100150000F90DF91CF91FF91EF91BF91AF919F9160
:100160008F917F916F915F914F913F912F910F9060
:0C0170000FBE0F901F901895F894FFCF61
:0E017C004C616220636F6D706C65746F0000E3
:00000001FF
