:100000000C9434000C9451000C9451000C94510049
:100010000C9451000C9451000C9451000C9451001C
:100020000C9451000C9451000C9451000C9451000C
:100030000C9451000C9451000C9451000C945100FC
:100040000C9451000C9451000C94F9000C94510044
:100050000C9451000C94D2000C9451000C9451005B
:100060000C9451000C94510011241FBECFEFD8E026
:10007000DEBFCDBF11E0A0E0B1E0E4EEF2E002C0EF
:1000800005900D92A837B107D9F721E0A8E7B1E0B4
:1000900001C01D92A338B207E1F70E9497000C94AB
:1000A00070010C9400008AB182608AB98AB18E7F97
:1000B0008AB91092C000E1ECF0E080818869808309
:1000C00086E08093C20087E690E09093C50080931D
:1000D000C4000895ECE7F0E01082808180668083A0
:1000E0008BE880937A000895F8948FEF84B90E948A
:1000F00053000E946A00789408959091C00095FF83
:10010000FCCF8093C60008950F931F93CF938C016B
:10011000C0E003C00E947D00CF5FF801EC0FF11D2D
:1001200080818111F7CFCF911F910F9108950E9487
:10013000740082E091E00E9484008091010180338C
:10014000E1F380910101813319F0823371F0F1CF35
:1001500086E591E00E948400EAE7F0E08081806417
:10016000808380E380930101E4CF87E691E00E94E1
:10017000840081E080937801809178018130E1F3FF
:100180008091000185B980E380930101D2CF4AE0DC
:1001900050E069E771E00E94300189E791E00E9438
:1001A000840008951F920F920FB60F9211242F937F
:1001B0003F934F935F936F937F938F939F93AF93EF
:1001C000BF93EF93FF938091790090E00E94C70066
:1001D000FF91EF91BF91AF919F918F917F916F911F
:1001E0005F914F913F912F910F900FBE0F901F90F5
:1001F00018951F920F920FB60F9211242F933F93D1
:100200004F935F936F937F938F939F93AF93BF931E
:10021000EF93FF938091C60090917801992339F074
:1002200080930001109278010E947D0008C0909197
:100230000101903311F4809301010E947D00FF9130
:10024000EF91BF91AF919F918F917F916F915F914E
:100250004F913F912F910F900FBE0F901F901895C7
:100260004532510520F4423010F00C943B01FB0163
:100270001082CB010895BB274A3031F4992322F430
:10028000BDE2909581959F4F0C944701BB27FB01E0
:100290005527AA27880F991FAA1FA41710F0A41B7F
:1002A00083955051B9F7A05DAA3308F0A95DA193D9
:1002B000009779F7B111B1931192CB010C946001C1
:1002C000DC01FC01672F71917723E1F7329704C0BD
:1002D0007C916D9370836291AE17BF07C8F3089548
:0402E000F894FFCFC0
:1002E40030300A204269656E76656E69646F2073EA
:1002F400656C656363696F6E6520756E61206F70F0
:100304006369F36E3A200A20312E204C6565722011
:10031400504F54200A20322E20456E766961722097
:100324006361726163746572200A20456C6563635E
:1003340069F36E3A20000A2056616C6F722064657E
:1003440020504F543A20000A496E67726573652045
:0803540076616C6F723A000043
:00000001FF
